:1000000000300020FD000000490100004B0100000D
:1000100000000000000000000000000000000000E0
:100020000000000000000000000000004D01000082
:1000300000000000000000004F010000510100001E
:10004000550100005D010000650100006D01000028
:10005000750100007D010000850100008D01000098
:10006000950100009D010000A5010000AD01000008
:10007000B5010000BD010000C5010000CD01000078
:10008000D5010000DD010000E5010000ED010000E8
:10009000F5010000FD010000050200000D02000056
:1000A000150200001D020000250200002D020000C4
:1000B000350200003D020000450200004D02000034
:1000C0009032000000F0FF1F4800000048F0FF1FC2
:1000D000D400000010B5002304E004680C60043371
:1000E000043004319342F8D310BD002303E0002212
:1000F0000260043304308B42F9D3704710B572B6F6
:1001000001F0E0FF0D4B07E0186859681C000C3443
:100110009A68FFF7DFFF2300094A9342F4D306E011
:1001200018681C0008345968FFF7DFFF2300054AF0
:100130009342F5D362B601F0DBFFFEE7C00000009A
:10014000CC000000D4000000FEE7FEE7FEE7FEE77B
:10015000FEE7FEE710B5FFF7FCFF10BD10B5FFF797
:10016000F8FF10BD10B5FFF7F4FF10BD10B5FFF795
:10017000F0FF10BD10B5FFF7ECFF10BD10B5FFF795
:10018000E8FF10BD10B5FFF7E4FF10BD10B5FFF795
:10019000E0FF10BD10B5FFF7DCFF10BD10B5FFF795
:1001A000D8FF10BD10B5FFF7D4FF10BD10B5FFF795
:1001B000D0FF10BD10B501F0A1FD10BD10B501F0CC
:1001C000AFFD10BD10B5FFF7C4FF10BD10B5FFF7B0
:1001D000C0FF10BD10B5FFF7BCFF10BD10B5FFF795
:1001E000B8FF10BD10B5FFF7B4FF10BD10B5FFF795
:1001F000B0FF10BD10B5FFF7ACFF10BD10B5FFF795
:10020000A8FF10BD10B5FFF7A4FF10BD10B5FFF794
:10021000A0FF10BD10B5FFF79CFF10BD10B5FFF794
:1002200098FF10BD10B5FFF794FF10BD10B5FFF794
:1002300090FF10BD10B5FFF78CFF10BD10B5FFF794
:1002400088FF10BD10B5FFF784FF10BD10B5FFF794
:1002500080FF10BDFFFFFFFFFFFFFFFFFFFFFFFF5E
:10026000FFFFFFFFFFFFFFFFFFFFFFFFFFFFFFFF9E
:10027000FFFFFFFFFFFFFFFFFFFFFFFFFFFFFFFF8E
:10028000FFFFFFFFFFFFFFFFFFFFFFFFFFFFFFFF7E
:10029000FFFFFFFFFFFFFFFFFFFFFFFFFFFFFFFF6E
:1002A000FFFFFFFFFFFFFFFFFFFFFFFFFFFFFFFF5E
:1002B000FFFFFFFFFFFFFFFFFFFFFFFFFFFFFFFF4E
:1002C000FFFFFFFFFFFFFFFFFFFFFFFFFFFFFFFF3E
:1002D000FFFFFFFFFFFFFFFFFFFFFFFFFFFFFFFF2E
:1002E000FFFFFFFFFFFFFFFFFFFFFFFFFFFFFFFF1E
:1002F000FFFFFFFFFFFFFFFFFFFFFFFFFFFFFFFF0E
:10030000FFFFFFFFFFFFFFFFFFFFFFFFFFFFFFFFFD
:10031000FFFFFFFFFFFFFFFFFFFFFFFFFFFFFFFFED
:10032000FFFFFFFFFFFFFFFFFFFFFFFFFFFFFFFFDD
:10033000FFFFFFFFFFFFFFFFFFFFFFFFFFFFFFFFCD
:10034000FFFFFFFFFFFFFFFFFFFFFFFFFFFFFFFFBD
:10035000FFFFFFFFFFFFFFFFFFFFFFFFFFFFFFFFAD
:10036000FFFFFFFFFFFFFFFFFFFFFFFFFFFFFFFF9D
:10037000FFFFFFFFFFFFFFFFFFFFFFFFFFFFFFFF8D
:10038000FFFFFFFFFFFFFFFFFFFFFFFFFFFFFFFF7D
:10039000FFFFFFFFFFFFFFFFFFFFFFFFFFFFFFFF6D
:1003A000FFFFFFFFFFFFFFFFFFFFFFFFFFFFFFFF5D
:1003B000FFFFFFFFFFFFFFFFFFFFFFFFFFFFFFFF4D
:1003C000FFFFFFFFFFFFFFFFFFFFFFFFFFFFFFFF3D
:1003D000FFFFFFFFFFFFFFFFFFFFFFFFFFFFFFFF2D
:1003E000FFFFFFFFFFFFFFFFFFFFFFFFFFFFFFFF1D
:1003F000FFFFFFFFFFFFFFFFFFFFFFFFFFFFFFFF0D
:10040000FFFFFFFFFFFFFFFFFFFFFFFFFEFFFFFFFD
:1004100080B582B000AF786039607B681A693B684C
:10042000DA401300012213401800BD4602B080BD1F
:1004300080B582B000AF786039603A687B6811009F
:100440001800FFF7E5FF03001800BD4602B080BDAD
:1004500080B584B000AF78600A00FB1C1A707B681E
:100460001B68FB60FB6818229343FB60FB1C1B7836
:10047000DB0018221340FA681343FB607B68FA68BC
:100480001A60C046BD4604B080BD80B582B000AFE2
:1004900078600A00FB1C1A70FB1C1B78002B06D02E
:1004A0007B689B6D80221A437B689A6506E07B68B7
:1004B0009B6D802293431A007B689A65C046BD46B7
:1004C00002B080BD80B584B000AF0200FB1D1A7081
:1004D0003B1D0A1C1A803B1D1A88FB1D1978144B02
:1004E0008900CB589B685A43FA239900100002F008
:1004F0000EFA0300FB60FB1D1A780D4B9200D158D9
:10050000FB1D1B780B4AD35CFA680133DB00CB1868
:1005100008331A60FB1D1A78054B9200D35801214D
:100520001800FFF7B2FFC046BD4604B080BDC0460C
:1005300000F0FF1F30F0FF1F90B599B002AF01F03F
:10054000BFFC01F053FC01F0FDFB34243B19180003
:1005500000F052FF3B19A24A1900100000F0C8FE3B
:100560003B19A04A1900100000F0C2FE3B199E4A38
:100570001900100000F0BCFE3B199C4A1900100045
:1005800000F0B6FE30217B1800221A707B18012281
:100590009A707B180022DA707B1800225A7018209B
:1005A0003B187A1812681A603B187A1812685A6059
:1005B0003B187A1812689A603B187A181268DA6049
:1005C0003B187A1812681A613B187A1812685A6137
:1005D00000237B6509E07B6DD9B21823FB187A6D87
:1005E0009200D1547B6D01337B657B6D052BF2DD71
:1005F000002000F095FA0300182439197848019377
:1006000096231B0100930023062200F02BFF0020FD
:1006100000F086FA030039197248019396231B01F2
:1006200000930023022200F01DFF002000F078FA62
:10063000030039196C48019396231B010093002392
:10064000022200F00FFF002000F06AFA03003919BF
:100650006648019396231B0100930023022200F0B9
:1006600001FF5F4B01211800FFF7F2FE5D4B0121F6
:100670001800FFF7EDFE5C4B01211800FFF7E8FEC4
:100680005A4B01211800FFF7E3FE00237B6509E0C8
:100690007B6DDBB252480222190001F0A9F87B6D94
:1006A00001337B657B6D052BF2DD00237B6517E055
:1006B0007B6DDBB24B480222190001F099F87B6D8B
:1006C000DBB249480222190001F092F87B6DDBB2DF
:1006D00046480222190001F08BF87B6D01337B65DF
:1006E0007B6D012BE4DD3E4B01211800FFF7CDFEB1
:1006F0003C4B01211800FFF7C8FE3B4B01211800BD
:10070000FFF7C3FE394B01211800FFF7BEFE00239F
:100710007B6508E07B6DDBB204211800FFF7D2FE99
:100720007B6D01337B657B6D0B2BF3DD3B1D18006F
:1007300001F048FA3B1D962212021A603B1D01226D
:10074000DA723B1D01221A7300F0D4F902003B1D3E
:100750002748190001F0BEF8264B06211800FFF7C4
:1007600067FE031E07D1224B5B79DBB2204A1021C2
:100770000B43DBB253715323FB1800221A7017246A
:100780003B191B480122190001F06EFA3B191B7836
:10079000002B04D15323FB1800221A701EE01723EC
:1007A000FB181B78042B19D95323FB181B780B2B30
:1007B00014D81723FB181B78053B9BB29B009AB2F9
:1007C00053210C007B181B7811001800FFF77AFEEC
:1007D00021007B181A787B1801321A70C046CEE7C8
:1007E000008003400090034000A0034000700240DE
:1007F00000A0064080F00F4080B582B000AF786066
:10080000084B1B68084A134019007B689A04C023F0
:100810001B031A40034B0A431A60C046BD4602B090
:1008200080BDC04600700440FFFFF3FF80B584B078
:1008300000AF786039600F203B187A6812781A7020
:100840003B183A1812785F210A401A703B681978F1
:100850003B183A1812780A431A707B683A181278D3
:100860001A70C046BD4604B080BD80B584B000AFEC
:1008700078600A00FB1C1A700F203B187A68127807
:100880001A703B183A1812780F218A431A703B18D5
:100890003918FA1C097812780A431A707B683A18DA
:1008A00012781A70C046BD4604B080BD80B500AF56
:1008B000064B1B68002B03D1054B180001F01EFCF2
:1008C000024B1B681800BD4680BDC04648F0FF1FA4
:1008D000002A000080B582B000AFFFF7E7FF0300F9
:1008E0007B607B68002B01D17B683FE0214B1B784C
:1008F000DBB2DB08DAB2FB1C07210A401A70FB1CD2
:100900001B787A68DA4013007B601A4B5B78DBB2A5
:100910001B09DAB2BB1C03210A401A70BB1C1B78EE
:10092000002B21D0FB1C1B78062B0AD002DC002BED
:1009300017DB02E0072B0CD013E07B685B097B60C0
:1009400013E07B681421180001F0E1FF03007B60D5
:100950000BE07B680C21180001F0D9FF03007B60DD
:1009600003E000237B6000E0C0467B681800BD46C2
:1009700002B080BD0040064080B500AF0B4B9B79B4
:10098000DBB21A000123134002D1094B1B6809E0B6
:10099000084B1A68054B1B7ADBB25B0807210B403A
:1009A000DA4013001800BD4680BDC0460040064036
:1009B0003CF0FF1F40F0FF1F80B500AF074B9B7955
:1009C000DBB21A001023134003D1FFF783FF0300AB
:1009D00001E0034B1B681800BD4680BD0040064087
:1009E0003CF0FF1F80B584B000AF78607B680E4A92
:1009F000934204D80F23FB1800221A700CE07B6886
:100A00000A4A934204D80F23FB1801221A7003E00C
:100A10000F23FB1802221A700F23FB181B781800F3
:100A2000BD4604B080BDC0469798000000127A0011
:100A300080B500AF0A4B1B78DBB25BB2002B0ADA41
:100A4000084B1B68002B03D1074B180001F056FB25
:100A5000044B1B6800E000231800BD4680BDC04663
:100A60000050064048F0FF1F2C2A000080B582B0DD
:100A700000AF1C4B1B689B0C03221340022B18D0A9
:100A8000032B22D0002B24D1174B1B68002B03D142
:100A9000164B180001F032FBFFF7CAFF0200124BA1
:100AA0001B689A4202D1104B1B6800E000237B6058
:100AB00012E00D4B1B68002B03D10D4B180001F009
:100AC0001DFB094B1B687B6006E0FA239B007B60E3
:100AD00002E000237B60C0467B681800BD4602B080
:100AE00080BDC046007004404CF0FF1F582A000033
:100AF000842A000080B500AF00F090F8064A074B4A
:100B0000D3581B0F0F2213400133190001F0FFFED1
:100B100003001800BD4680BD007004404410000072
:100B200080B584B000AF0200FB1D1A70FB1D1B785E
:100B3000122B4ED89A002B4BD3181B689F4600F0FF
:100B40006DF8294A294BD3581B0F0F22134001334C
:100B5000190001F0DCFE0300FB603DE000F05EF8F0
:100B6000214A224BD3581B0C072213400133190092
:100B700001F0CDFE0300FB602EE000F04FF81A4AB2
:100B80001A4BD3581B0C072213400133190001F0F4
:100B9000BEFE0300FB601FE0FFF768FF0300FB6081
:100BA0001AE000F0B5F80300FB6015E000F09CF8D7
:100BB0000300FB6010E0FFF73BFF0300FB600BE06E
:100BC00000F056F80300FB6006E0FA239B00FB6090
:100BD00002E00023FB60C046FB681800BD4604B07D
:100BE00080BDC046B02A00000070044044100000E0
:100BF00080B582B000AF786006497B685B68064AC2
:100C00008B507B685B781800FFF7F6FDC046BD4649
:100C100002B080BD007004404410000080B582B076
:100C200000AF124B9B79DBB29B08032213403B6061
:100C30003B68012B08D002D3022B0AD00EE000F053
:100C400017F803007B600CE0FFF796FE03007B6063
:100C500007E0FFF72BFE03007B6002E000237B60D0
:100C6000C0467B681800BD4602B080BD004006400B
:100C700080B582B000AF1A4B5B78DBB21A0002235A
:100C8000134001D0002326E0FFF796FE03007B60AF
:100C90007B68002B01D17B681DE0114BDB78DBB258
:100CA0005B09DAB2FB1C03210A401A700C4BDB789B
:100CB000DBB2DB09DAB2BB1C01210A401A70FB1C53
:100CC0001978BB1C1A78074B49008A185200D35A6E
:100CD0001A007B6853431800BD4602B080BDC04671
:100CE00000400640FC2A000080B500AF074B1B788F
:100CF000DBB21A000223134001D1002302E0FFF708
:100D00003BFE03001800BD4680BDC04600400640C3
:100D100080B582B000AFFFF74FFE03007B607B68B9
:100D2000002B08D0FFF77AFF0300DB087A689A42AD
:100D300001D87B6800E000231800BD4602B080BDEA
:100D400080B582B000AF0200FB1D1A7000231800AE
:100D5000BD4602B080BDFFFFB0B584B000AF786083
:100D60007B681B680F257C191800FFF73BFE03000A
:100D700023707B681B791B4A19001000FFF775FD73
:100D80007B680633174A19001000FFF74FFD164B1A
:100D90005B78DBB23C229343DAB27B191B781B01F0
:100DA000DBB230210B40DBB21343DAB27B685B79F4
:100DB0000D491343DBB24B707B685B79002B0DD080
:100DC000084B1B78DBB25BB2002B07DAC046064B40
:100DD0009B79DBB21A0002231340F8D0C046BD460F
:100DE00004B0B0BD005006400040064090B585B04C
:100DF00000AF0400080011003B60FB1D221C1A70AC
:100E0000BB1D021C1A707B1D0A1C1A700F23FB18D5
:100E100000221A703F4A0E23FB18D2781A703D4BFD
:100E20009B79DBB21B0901221340012B0BD10F234D
:100E3000FB1801221A70374BDB78DBB2354A2021D0
:100E40004B40DBB2D370334B1B78DBB20322134031
:100E5000DAB2FB1D1B78DB00DBB238210B40DBB2C2
:100E60002C491343DBB20B702A4B5B78DBB21A00C0
:100E70000423134007D0C046264B9B79DBB21A00EF
:100E800002231340F8D0C046224B9B79DBB21A00F4
:100E900010231340F8D10F23FB181B78002B04D02C
:100EA0001C4A0E23FB181B78D3700E243B191B78A9
:100EB0001F221340D9B2BB1D1B78DB01DAB27B1DA8
:100EC0001B785B01DBB260200340DBB21343DAB274
:100ED0003B190A431A700F4A3B191B78D370C0465E
:100EE0000C4BDB78DBB20E22BA1812789A42F7D19B
:100EF000C046084B9B79DBB29B0803221340F8D114
:100F00003B68002B01D03B68984700231800BD4682
:100F100005B090BD00400640B0B582B000AF0500FE
:100F20000C0010001900FB1D2A1C1A70BB1D221C8E
:100F30001A707B1D021C1A703B1D0A1C1A70FB1DC7
:100F40001B781800FFF7FCFEBC693B1D1A787B1D5F
:100F50001978BB1D18782300FFF748FF030018001D
:100F6000BD4602B0B0BDFFFF80B584B000AF786071
:100F70007B681B0C084A94466344FB60FB68196855
:100F80007B681B041B0C01229A40FB680A431A6011
:100F9000C046BD4604B080BD0070044080B584B03A
:100FA00000AF78600623BB600023FB6009E00E4BB6
:100FB000FA689200D3587A689A4207D0FB680133E6
:100FC000FB60FA68BB689A42F1D300E0C046FA6859
:100FD000BB689A4203D3054B180001F08FF8FB68F9
:100FE0001800BD4604B080BD0C2B00003C2B000057
:100FF00080B586B000AF7860396017217B18002279
:101000001A7000233B610023FB607B689B6DFB60D3
:10101000FB6808221343FB607B685B6E3B617B18B7
:1010200000221A700FE017217B181B78DB000533B4
:1010300001229A4013003A6913433B617B181A78E6
:101040007B1801321A701723FB181A787B68324913
:101050008B421DD07B6831498B4217D07B68304969
:101060008B4211D07B682F498B420BD07B682E4975
:101070008B4203D07B682D498B4201D1012308E0CC
:10108000002306E0032304E0012302E0012300E043
:1010900003239342C7DC7B683A695A667B688C22DB
:1010A0009B583B613B69B42213433B613B68802200
:1010B000134004D03B69F822520113433B613B6863
:1010C000702213401CD03B69F822520313433B614A
:1010D0003B681022134003D0FB6810221343FB60CF
:1010E0003B682022134003D0FB6820221343FB609F
:1010F0003B684022134003D0FB6840221343FB604F
:101100007B68FA689A657B688C213A695A50C046B8
:10111000BD4606B080BDC04600800340009003403D
:1011200000A00340006002400070024000800240C6
:1011300080B584B000AF786039600023FB60002385
:10114000BB607B688C229B5804221A437B688C21ED
:101150005A507B685B6EBB600023FB600BE0FB6852
:10116000DB00053301229A401300BA681343BB60C9
:10117000FB680133FB607B68574A93421DD07B6854
:10118000564A934217D07B68554A934211D07B68E8
:10119000544A93420BD07B68534A934203D07B68F6
:1011A000524A934201D1012308E0002306E00323C1
:1011B00004E0012302E0012300E00323FA689342E4
:1011C000CDD87B68BA685A667B6898229B58BB600A
:1011D0007B68414A934224D07B68404A93421DD0A9
:1011E0007B683F4A934216D07B683E4A93420FD0B9
:1011F0007B683D4A934208D07B683C4A934202D1C7
:1012000004235B420FE000230DE004235B420AE06D
:1012100040235B4207E004235B4204E004235B427B
:1012200001E040235B42BA681340BB607B682A4AF6
:10123000934220D07B68294A93421AD07B68284A7F
:10124000934214D07B68274A93420ED07B68264A8B
:10125000934208D07B68254A934201D103230BE0D7
:1012600001235B4208E0032306E03F2304E003235D
:1012700002E0032300E03F233A681340BA681343B7
:10128000BB607B689821BA685A507B689B6DBB60D5
:101290003A6880235B00134004D0BB6802221343EA
:1012A000BB6003E0BB6802229343BB603A688023C3
:1012B0009B00134004D0BB6801221343BB6003E0D2
:1012C000BB6801229343BB607B68BA689A65C046DD
:1012D000BD4604B080BDC04600800340009003407E
:1012E00000A0034000600240007002400080024005
:1012F00080B584B000AF786039603B68002B03D1C3
:101300003A4B180000F0FAFE3B685B68F02213408D
:1013100001D1012365E07B681800FFF73FFE020062
:10132000334B9200D3581800FFF71EFE3B681B7B1F
:101330005B016022134005221A437B685A653B68B3
:101340005A687B6811001800FFF752FE3B689A68E4
:101350007B6811001800FFF7EBFE3B681B781A0052
:1013600007231A407B681A603B685B789B01FF2269
:101370001A403B689B7E590280239B000B401A4316
:101380007B6884215A503B681B7E1A007B68DA65B3
:101390003B685B7E1A007B681A673B685A697B680A
:1013A000DA663B689B7B9B01FF221A403B681B6906
:1013B0003F210B401A437B689A667B68DB6FFB60BA
:1013C000FB680C4A1340FB603B685B7B1A02F0230E
:1013D0001B011340FA681343FB607B68FA68DA6705
:1013E00000231800BD4604B080BDC046702B00002D
:1013F000242B0000FFF0FFFF80B582B000AF7860C3
:101400007B68002B03D1164B180000F077FE7B6839
:1014100000221A707B6800225A707B6880225A6012
:101420007B6800229A607B6800221A737B68002226
:101430005A737B6801229A737B6800221A617B6869
:1014400000225A617B6800221A767B6800225A7655
:101450007B6800229A76C046BD4602B080BDC04679
:10146000942B000080B58AB000AFF860B960190015
:10147000FB1D1A70BB1D0A1C1A70BB68002B03D120
:10148000D04B180000F03AFE7B6B002B03D1CE4B03
:10149000180000F033FE3B6B002B03D1CB4B180040
:1014A00000F02CFEFB1D1B78002B03D1C84B18004D
:1014B00000F024FEFB681B68072213407A6BDA40B9
:1014C0001300BB61BB1D1B78012B12D0022B01D076
:1014D000002B1DD1FB681B68202293431A00FB6878
:1014E0001A60396BB86901F012FA0300013B7B62A4
:1014F00010E0FB681B6820221A43FB681A603B6BF4
:101500005B001900B86901F002FA03007B6201E098
:10151000012352E17B6AAF4A934201D901234CE196
:10152000FB687A6A9A601F23FB1800221A703BE15D
:10153000BB689B78642B01D901233EE1BB1D1B785E
:10154000002B03D0BB1D1B78012B4FD1BB681B7830
:10155000FA680133DB00D31804331B687B617B69B5
:101560003C2293437B61BB685B789B001A007B69DC
:1015700013437B617B69202213437B61BB681B782B
:10158000FA680133DB00D31804337A691A60BB6848
:101590009B78002B04D12223FB1800221A8018E02C
:1015A000BB689B781A007B6A53436421180001F0E2
:1015B000AEF903001A0022217B181A807B181B88C1
:1015C0007A6A9A4205D87B6A9AB22223FB180132C2
:1015D0001A80BB681B7818002223FB181A88F96848
:1015E000431CDB00CB1808331A60D4E0BB681B78BF
:1015F0001900FB68784A93421DD0FB68774A9342F2
:1016000017D0FB68764A934211D0FB68754A934223
:101610000BD0FB68744A934203D0FB68734A934231
:1016200001D1012308E0002306E0032304E00123A5
:1016300002E0012300E003238B4201DC0123BCE034
:10164000BB68DB78642B01D90123B6E0BB68DB788B
:10165000002B04D12023FB1800221A800DE0BB6868
:10166000DB781A007B6A53436421180001F04FF9BC
:1016700003001A002023FB181A80BB689B78002BFC
:1016800008D12223FB1800221A802023FB180022F5
:101690001A8018E0BB689B781A007B6A5343642168
:1016A000180001F034F903001A0022217B181A8077
:1016B0007B181B887A6A9A4205D87B6A9AB22223E1
:1016C000FB1801321A80BB681B785B00FA68013393
:1016D000DB00D31804331B687B617B693C22934396
:1016E0007B61BB685B789B001A007B6913437B615D
:1016F000BB681B785B00FA680133DB00D318043346
:101700007A691A60BB681B785B000133FA680133A1
:10171000DB00D31804331B687B617B693C22934355
:101720007B61BB685B789B001A007B6913437B611C
:10173000BB681B785B000133FA680133DB00D31808
:1017400004337A691A60FB685A6EBB681B78DB0049
:10175000012199400B001A43FB685A66BB681B784D
:101760005B0020203A181288F9680133DB00CB189F
:1017700008331A603B181A882223FB181B88D218DA
:10178000BB681B785B0001331100FA680133DB0092
:10179000D31808331960BB680433BB601F217B1862
:1017A0001A787B1801321A701F23FA18FB1D127861
:1017B0001B789A4200D2BBE600231800BD460AB04F
:1017C00080BDC046B82B0000E02B0000082C0000B4
:1017D000302C0000FFFF0000008003400090034019
:1017E00000A0034000600240007002400080024000
:1017F00080B584B000AF786008001100FB1C021CAB
:101800001A70BB1C0A1C1A70FB1C1B787A68013307
:10181000DB00D31804331B68FB60FB680C22934386
:10182000FB60BB1C1B789B000C221340FA6813431F
:10183000FB60FB1C1B787A680133DB00D318043390
:10184000FA681A60C046BD4604B080BD80B584B059
:1018500000AF78607B681B0C084A94466344FB60C9
:10186000FB6819687B681B041B0C01229A40FB680B
:101870000A431A60C046BD4604B080BD00700440F3
:1018800080B584B000AF78600223BB600023FB60AA
:1018900009E00E4BFA689200D3587A689A4207D052
:1018A000FB680133FB60FA68BB689A42F1D300E041
:1018B000C046FA68BB689A4203D3054B180000F093
:1018C0001DFCFB681800BD4604B080BD242D00003F
:1018D000342D0000B0B588B000AFF860B9607A6010
:1018E000BB68002B03D1AF4B180000F007FCBB68AE
:1018F0001B68002B03D1AC4B180000F0FFFBFB680A
:10190000AA4A934208D0FB68A94A934201D1012315
:1019100003E001235B4200E00823BA689279934216
:1019200003DAA44B180000F0E9FBFB689F4A9342DE
:1019300008D0FB689E4A934201D1012303E00123B2
:101940005B4200E00823BA68D279934203DA9A4BEB
:10195000180000F0D3FB1E243B1900221A801D231F
:10196000FB1800221A700023BB61BB681B681B01B7
:101970001900786800F0CBFF03001A003B191A80A9
:101980003B191B88002B03D11E23FB1801221A8050
:1019900000237B617B685A00BB681B68190010003C
:1019A00000F0B5FF030099B21E243B191B885B01B0
:1019B0009AB212257B198A1A1A807B6858003B1943
:1019C0001B885A017B191B88D318190000F09FFF50
:1019D00003007B61BB681B687A699A4204D9BB68C3
:1019E0001B687A69D31A03E0BB681A687B69D31A4B
:1019F000BB61BB681B686421180000F088FF03000E
:101A00001A0013005B009B18BA699A4201D96B4B0C
:101A1000C4E0FB681800FFF733FF0200684B920038
:101A2000D3581800FFF712FFFB68DB78DBB20C22FB
:101A30009343DAB2FB68DA70FB681B78DBB21F22D3
:101A40009343DAB21E217B181B881B0A9BB2DBB2C0
:101A50001343DAB2FB681A707B181B88DAB2FB6892
:101A60005A70FB689B7ADBB21F229343DAB21223CF
:101A7000FB181B88DBB21F210B40DBB21343DAB229
:101A8000FB689A72FB689B78DAB21D203B1817211D
:101A90008A431A70BB689B7A9B00DBB20422134016
:101AA000D9B23B183A1812780A431A70BB681B79EE
:101AB000002B0AD0BB681A791D217B181B781343B1
:101AC000DAB27B1810210A431A70FB681D22BA187B
:101AD00012789A70FB681B78DBB220229343DAB24B
:101AE000BB685B795B01DBB220210B40DBB21343A7
:101AF000DAB2FB681A70BB689A79FB68DA74BB6863
:101B0000DA79FB685A75FB681B7CDBB2782252429B
:101B10001343DAB2FB681A74FB685B7CDBB24022C9
:101B200052421343DAB2FB685A74BB681B7A002B2B
:101B300007D0FB685B7BDBB208221343DAB2FB6899
:101B40005A73BB685B7A002B07D0FB685B7BDBB208
:101B500001221343DAB2FB685A731D23FB18FA689B
:101B6000D2781A70BB68DB7A002B06D01D22BB1816
:101B7000BA18127808210A431A70BB681B7B002B25
:101B800006D01D22BB18BA18127804210A431A7015
:101B9000FB681D22BA181278DA7000231800BD46BF
:101BA00008B0B0BDB42D0000D82D000000A0064044
:101BB00000B006400C2E0000682E0000F503000067
:101BC0002C2D000080B582B000AF78607B68002BC0
:101BD00003D1134B180000F091FA7B68E122520206
:101BE0001A607B6800221A717B6800225A717B6838
:101BF00000229A717B680122DA717B6800221A72D6
:101C00007B6800225A727B6800229A727B680022ED
:101C1000DA727B6800221A73C046BD4602B080BDEE
:101C2000C42E000080B584B000AF78607B681B795B
:101C3000DBB21A007B685B79DBB21B021343FB60EB
:101C40007B681B7BDBB21B04FA681343FB607B6879
:101C50009B7CDBB21B06FA681343FB60FB68180031
:101C6000BD4604B080BDFFFF80B586B000AFF86010
:101C7000B9607A60BB68002B2ED11C4B180000F0B5
:101C80003DFAFB681800FFF7CDFF03007B617B691D
:101C90000822134001D0164B24E07B690422134034
:101CA00001D0144B1EE07B690222134001D0124B7D
:101CB00018E07B690122134002D0FD239B0011E054
:101CC000FB689B7DDBB2002BDBD0BB685A1CBA6083
:101CD000FA68D279D2B21A707B685A1E7A60002BE9
:101CE000EED100231800BD4606B080BD382F00009D
:101CF000F1030000F2030000F303000080B500AF21
:101D0000044B1A68044B1B68044819009047C046EE
:101D1000BD4680BD58F0FF1F50F0FF1F00A00640D9
:101D200080B500AF044B1A68044B5B680448190087
:101D30009047C046BD4680BD58F0FF1F50F0FF1FC2
:101D400000B0064080B582B000AFFEF7D3FE0300BE
:101D50007B60C046BD4602B080BDFFFF80B500AFCE
:101D60000349044AC0239B028B50C046BD4680BD38
:101D7000007004404410000080B582B000AF78606D
:101D8000034B7A681A60C046BD4602B080BDC046AB
:101D900048F0FF1F80B582B000AF064B7B6000E0CB
:101DA000C0467B685A1E7A60002BF9D1C046BD46FA
:101DB00002B080BD3075000080B582B000AF7860A1
:101DC000084B1B68084A134019007B681A06C02399
:101DD0009B041A40034B0A431A60C046BD4602B03A
:101DE00080BDC04600700440FFFFFFFC80B582B09C
:101DF00002AFFFF7B3FF0F4B1800FEF7ADFF0E4B1E
:101E00001800FFF7B9FF0421012202200B4B0093B9
:101E100003000020FFF780F8094B1800FEF7E8FEEA
:101E2000084B094A1A600220FFF7C6FFC046BD46AC
:101E300080BDC046503200000024F400951D000013
:101E40004832000044F0FF1F7A9C170480B584B02C
:101E500000AF78607B681B0C084A94466344FB60C3
:101E6000FB6819687B681B041B0C01229A40FB6805
:101E70000A431A60C046BD4604B080BD00700440ED
:101E800080B584B000AFF860B960FB1D1A70FB68C4
:101E9000BA689200D358094A1A40FB1D1B781902F0
:101EA000E023DB000B401A431100FB68BA68920084
:101EB000D150C046BD4604B080BDC046FFF8FFFF0C
:101EC00080B500AF6F4B1800FFF7C0FF6E4B1800D6
:101ED000FFF7BCFF6D4B1800FFF7B8FF6C4B180005
:101EE000FFF7B4FF6B4B1800FFF7B0FF6A4B0722F8
:101EF00000211800FFF7C4FF674B032201211800DF
:101F0000FFF7BEFF644B002212211800FFF7B8FF55
:101F1000614B002213211800FFF7B2FF5E4B032232
:101F200002211800FFF7ACFF5B4B072214211800B9
:101F3000FFF7A6FF584B072203211800FFF7A0FF69
:101F4000554B012204211800FFF79AFF534B03223F
:101F500000211800FFF794FF504B032201211800C5
:101F6000FFF78EFF4E4B012201211800FFF788FF7B
:101F70004B4B012202211800FFF782FF484B04223D
:101F800003211800FFF77CFF454B012204211800B4
:101F9000FFF776FF424B012205211800FFF770FF83
:101FA0003F4B052206211800FFF76AFF3C4B052234
:101FB00007211800FFF764FF3A4B042204211800A0
:101FC000FFF75EFF374B042205211800FFF758FF8B
:101FD000344B022206211800FFF752FF314B022238
:101FE00007211800FFF74CFF2F4B0122102118008A
:101FF000FFF746FF2C4B012211211800FFF740FF8D
:10200000294B042212211800FFF73AFF264B9A6C45
:10201000254B26490A409A64234B042213211800B9
:10202000FFF72EFF204B032218211800FFF728FF8F
:102030001D4B032219211800FFF722FF1A4B032220
:102040001E211800FFF71CFF194A1A4BD3581849D4
:102050000F229343174A8B50154A174BD3581449F4
:10206000164A1340144A8B50114A81235B01D358FE
:102070000F49134A1A4081235B01CA50C046BD462E
:1020800080BDC046090038100A0038100B00381017
:102090000C0038100D0038100090044000A00440DF
:1020A00000B0044000C0044000D00440FBFFFFFE2D
:1020B00000700440101000001C100000FFFF00FF23
:1020C000FFFF3FFF80B500AF064B074ADA81054BA3
:1020D000064ADA81034BE92252001A80C046BD4607
:1020E00080BDC0460020054020C5FFFF28D9FFFF66
:1020F00010B500F09BFAFEF71FFA10BD70B5050091
:102100000E4C0F48210000F0DDF92100280000F0FE
:10211000D9F90C4A111DCB6F013BCB67002B07DBB4
:10212000936F591C91670A221A7000F00DF870BD68
:1021300021000A2000F032F8F7E7C046D4F0FF1F74
:10214000583200005CF0FF1F18200149ABBE7047F9
:102150002600020010B500F014FC10BD202310B5BD
:102160000400C2689A43E2608369826A93420CD099
:1021700000F0BAF8E368074A1A4010231343E360FB
:10218000A36AA3612369E3622360E268024B134000
:10219000E36010BDEFCFFFFFBFBFFFFFF8B5CA6818
:1021A0004E4B050013400C00CB60930602D508008F
:1021B000FFF7D4FFA268E668531C0FDAB3050DD40D
:1021C00002235B429B1AA36090235B021E43236899
:1021D000E6605A1C22601D70E8B20AE0404A3240B4
:1021E000022A07D00023A36080331E43E66001204B
:1021F0004042F8BD80213B4B090233408B420AD15B
:102200000021200000F076F9E3689B0602D520004B
:10221000FFF7A4FFE6689023F0225B02334312012C
:10222000E360164210D1606900F0CCFB002820D09A
:1022300073051ED523002433236123600123E3614A
:1022400092235B023343E3609021090122682669EF
:102250000B4224D0E16A8A4200D91100891B17D1B0
:10226000731CE3622360E3695A1EA2602363357026
:10227000B2E780277F00380000F014F99423E26869
:102280005B0233431A4320612060E761E260DBE7D1
:102290002200300000F056F80028E1D0A7E7511CDA
:1022A000E8B221601070E26A21688A4200D9110008
:1022B000E269891B22635B0504D40A2802D08A42A2
:1022C00000DD89E70023E6622660A360220030007B
:1022D00000F038F8002800D17EE788E7FFFFF7FF1D
:1022E0008A10000010A0000070B5040005690168A4
:1022F000C26A124BC0680340E36082230340022B92
:1023000002D00120404270BD80235B021840FAD009
:10231000914200D211008D4208D10020E268084BA2
:10232000E56213402560A060E360ECE7491B2200F2
:10233000280000F007F80028EFD0E2E7FFFFF7FFE2
:10234000FFFFFEFFF7B5D56801900E001400576936
:10235000EB0205D5102338001D4300F02DFBA061D2
:10236000104B1D420FD0A169380000F037FB002848
:1023700006DA80230120E26840421343E3600FE065
:10238000094B1D40E56032000199380000F032FB36
:1023900043005B08F61AA3699E19A6610028E8D1DC
:1023A000FEBDC04610000200EFFFFDFFF7B500279D
:1023B000304EC51C3468AD08B84214D02900EB1C5F
:1023C0009C460A310191002C0FD10C3000F090F99D
:1023D000431C08D080239B05036045608460002F68
:1023E00046D130601EE00020FEBD802223685205E9
:1023F00093423AD1A7686368002F0BD080213A68D6
:1024000049058A4206D17A6803339B186360BB682A
:10241000A360EFE7AB4207DB9C4505DB80239B0510
:10242000236020000C30DFE7019A934210D980220C
:1024300020008021920522600C30AA005B1B8218CC
:102440004905033B6560A260116053609760CBE76C
:10245000002F0AD19B00C01A00F04AF9431CC2D0D9
:1024600080239B0523606560DBE72700A468AAE75B
:10247000B860D7E714F1FF1F10B5002811D08021F4
:102480000C38490501608268002A0AD013688B4223
:1024900007D14368546803331B1943609368836012
:1024A000F1E710BD10B5FFF781FF041E05D117221B
:1024B000034900F09FFAFFF747FE200010BDC04619
:1024C0007432000070B50D000400207800280FD091
:1024D000AB68013BAB60002B05DB2B685A1C2A6004
:1024E00018700134F1E72900FFF758FE431CF8D1BA
:1024F00070BDFFFFF7B5394BC56804000E000092B0
:102500001D4201D1022741E043691800019300F008
:1025100059FA071EF6D1009B012B28D0022B2BD095
:10252000002BEFD1002EEDDBAB0404D52368E26A6B
:102530009A4200D2E362A069B0420EDCE26A2368EC
:10254000934200D21300226919180092891AB142ED
:1025500003DB216B4218B2422EDC20231D430023F3
:10256000A662A36063601E4B1D40E5600EE0200084
:1025700000F038F83618D5E7019800F01DFAE26847
:10258000002805DA802301271343E3603800FEBDED
:10259000E16A2368994200D90B00A1695B1821699F
:1025A0005B1A920603D5A26A934200DA13008342B3
:1025B00000DA0300F618B5E7361AAA0701D5711A32
:1025C000A160EA0703D5009A9B1AF31A6360009B87
:1025D0009E19202326609D43C5E7C04603001000D6
:1025E000BFCFF7FFC268930705D1212201200E4B10
:1025F00040421A6070472023134012030AD5002B73
:1026000002D0806A0138F5E70368826900699B1887
:10261000181AF7E7002B01D0806AEBE7036882699C
:1026200000699B18181AE5E718F1FF1F37B5184C19
:1026300018492200002000F07BF8802380225B00F4
:10264000D2000021200000F02FF8134C134D22007F
:102650002900012000F06CF8802380225B00D2006A
:102660000021200000F020F80D4B1B680193022B85
:102670000DDD0C4C29002200022000F059F88023C7
:1026800080225B00D2000021200000F00DF837BD51
:102690005CF0FF1F8C32000098F0FF1F8E320000AC
:1026A00070320000D4F0FF1FF0B5C5680124AE07FA
:1026B00010D08026B600B24207D08026F600B24283
:1026C0000AD080267600B24204D1084F5E1E012453
:1026D000BE4204D92000F0BD01002300243115437F
:1026E00001610160C361C5600024F3E7FEFFFF00E4
:1026F00070B50C4D2B68002B01D10B4B2B600323C5
:10270000C41C2E689C433419200000F0D1F8002826
:1027100002D12C60300070BD0C220126034B7642A2
:102720001A60F7E710F1FF1F1CF1FF1F18F1FF1FE0
:10273000F7B50D0001901000140000F033F82B786D
:10274000722B1FD0772B04D0612B26D10823144A7B
:1027500001E0042302220220691C03278446042688
:10276000012508782B2810D0622813D0E260019A46
:1027700062611B0704D5022200212000FFF7BAFE88
:102780002000FEBD00230122E5E760463A430343F3
:102790000131E6E732432B43FAE70024F0E7C04675
:1027A00002800000F0B5C46889B00500A30722D0FC
:1027B000230718D44769066900F022F8380000F0B2
:1027C000F5F8230502D53000FFF756FE0B4BA40D9C
:1027D000A4059C4207D12022296A684600F004F92A
:1027E000684600F02FF83C2200212800FFF7B2FCD9
:1027F000002009B0F0BD01204042FAE7000080ADA2
:1028000073B5002813D000F05DF80500280076BDF0
:1028100030006043094BC01800F054F8002801D084
:1028200001256D420134019BA342F1DCEEE7044B2C
:1028300004001B68050001933C26F4E75CF0FF1FD1
:102840007032000010B5040000F006F8010020000E
:1028500000F0BEF810BDFFFF032110B5421C084276
:1028600018D1114C0368114959189943214219D0C4
:10287000DCB2411C002C0BD0FF242402811C23421B
:1028800006D0FF2109040B40591E8B41C318D91CE7
:10289000881A04E0431C0078002801D1981A10BD62
:1028A0001800DCE70430DDE780808080FFFEFEFE5C
:1028B000034B0200181E02D000209A42404170478C
:1028C0001CF5FF1F70B50326C36804001E4011D01D
:1028D0009B0611D5856AFFF741FCE268094B200091
:1028E0001340E360FFF700FD0022060029002000EE
:1028F000FFF700FE300070BD036882699D18036910
:10290000ED1AEAE7FFCFFFFF03000B4321D40029B4
:1029100031D00122D207030901E0090112099942CD
:10292000FBD9430801E0490052089942FBD900E075
:102930004908401A07D35241FAD30146104670475E
:1029400049084018F7D29218FAD3401801461046A9
:102950007047CB0F00D04942021000D5404253408F
:1029600008B5FFF7D4FF0CBC521000D34042002A38
:1029700000D549421847F446002000F001F86047AE
:1029800070478446043A09D3830707D109060B0A26
:1029900019430B0C1943043A02C0FCD2043203D091
:1029A00001700130013AFBD16046704703B46946BB
:1029B0000220ABBE02B0704703B469460C20ABBE28
:1029C00002B0704703B469460920ABBE02B070473D
:1029D00003B469460E20ABBE02B0704703B469462B
:1029E0000A20ABBE02B070470FB469460D20ABBEE3
:1029F00004B070470FB469460520ABBE04B0704701
:102A00002E2E2F647269766572732F66736C5F6306
:102A10006C6F636B2E633A323139203A20675F78EE
:102A200074616C3046726571000000002E2E2F64B8
:102A30007269766572732F66736C5F636C6F636B1C
:102A40002E633A333238203A20675F7874616C30F5
:102A500046726571000000002E2E2F647269766543
:102A600072732F66736C5F636C6F636B2E633A33A4
:102A70003435203A20675F7874616C333246726572
:102A8000710000002E2E2F647269766572732F66B6
:102A9000736C5F636C6F636B2E633A333530203A2F
:102AA00020675F7874616C33324672657100FFFF96
:102AB0003E0B00003E0B00005C0B0000D20B000040
:102AC0007A0B0000D20B0000D20B0000980B000024
:102AD000B60B0000D20B0000A20B0000AC0B0000F4
:102AE000C00B0000D20B0000D20B0000D20B000084
:102AF000D20B0000D20B0000CA0B00008002DC02E7
:102B00000005B80580079508000A710B0080034096
:102B10000090034000A003400060024000700240AB
:102B20000080024018003C1019003C101A003C10B4
:102B300006003C1007003C1008003C102E2E2F64AD
:102B40007269766572732F66736C5F66746D2E633F
:102B50003A313031203A20696E7374616E636520BA
:102B60003C2066746D4172726179436F756E7400BA
:102B70002E2E2F647269766572732F66736C5F6692
:102B8000746D2E633A323236203A20636F6E666976
:102B9000670000002E2E2F647269766572732F66AF
:102BA000736C5F66746D2E633A333037203A20635E
:102BB0006F6E6669670000002E2E2F64726976655D
:102BC00072732F66736C5F66746D2E633A333432A2
:102BD000203A2063686E6C506172616D7300000072
:102BE0002E2E2F647269766572732F66736C5F6622
:102BF000746D2E633A333433203A20737263436C1E
:102C00006F636B5F487A00002E2E2F6472697665C1
:102C100072732F66736C5F66746D2E633A3334344F
:102C2000203A2070776D467265715F487A00000027
:102C30002E2E2F647269766572732F66736C5F66D1
:102C4000746D2E633A333435203A206E756D4F66BD
:102C500043686E6C730000002E2E2F6472697665D7
:102C600072732F66736C5F66746D2E633A363233FF
:102C7000203A2065646765506172616D0000000054
:102C80002E2E2F647269766572732F66736C5F6681
:102C9000746D2E633A363636203A2070686173655B
:102CA00041506172616D73002E2E2F6472697665DA
:102CB00072732F66736C5F66746D2E633A363637A7
:102CC000203A20706861736542506172616D7300D3
:102CD0002E2E2F647269766572732F66736C5F6631
:102CE000746D2E633A373034203A206661756C7407
:102CF000506172616D7300002E2E2F6472697665CB
:102D000072732F66736C5F66746D2E633A3832335C
:102D1000203A2063686E6C436F756E7420213D20ED
:102D20002D3100FF00A0064000B006400A0034101C
:102D30000B0034102E2E2F647269766572732F6625
:102D4000736C5F756172742E633A313635203A20A8
:102D5000696E7374616E6365203C207561727441A5
:102D600072726179436F756E740000002E2E2F64AD
:102D70007269766572732F66736C5F756172742EFB
:102D8000633A313732203A2068616E646C65000026
:102D90002E2E2F647269766572732F66736C5F7561
:102DA0006172742E633A313930203A2068616E6462
:102DB0006C6500002E2E2F647269766572732F6623
:102DC000736C5F756172742E633A323038203A202A
:102DD000636F6E66696700002E2E2F6472697665D8
:102DE00072732F66736C5F756172742E633A323042
:102DF00039203A20636F6E6669672D3E62617564A3
:102E0000526174655F427073000000002E2E2F64C3
:102E10007269766572732F66736C5F756172742E5A
:102E2000633A323131203A2046534C5F4645415493
:102E30005552455F554152545F4649464F5F53498D
:102E40005A456E286261736529203E3D20636F6E8E
:102E50006669672D3E74784669666F57617465725E
:102E60006D61726B000000002E2E2F647269766512
:102E700072732F66736C5F756172742E633A3231B0
:102E800032203A2046534C5F464541545552455FE7
:102E9000554152545F4649464F5F53495A456E2843
:102EA0006261736529203E3D20636F6E6669672D00
:102EB0003E72784669666F57617465726D61726BB8
:102EC000000000002E2E2F647269766572732F66E3
:102ED000736C5F756172742E633A333637203A2013
:102EE000636F6E66696700002E2E2F6472697665C7
:102EF00072732F66736C5F756172742E633A333828
:102F000039203A2062617564526174655F42707362
:102F1000000000002E2E2F647269766572732F6692
:102F2000736C5F756172742E633A353831203A20C4
:102F300064617461000000002E2E2F647269766552
:102F400072732F66736C5F756172742E633A3539D4
:102F500035203A2064617461000000002E2E2F6439
:102F60007269766572732F66736C5F756172742E09
:102F7000633A363337203A20646174610000000000
:102F80002E2E2F647269766572732F66736C5F756F
:102F90006172742E633A363534203A2068616E646B
:102FA0006C6500002E2E2F647269766572732F6631
:102FB000736C5F756172742E633A363832203A2032
:102FC00068616E646C6500002E2E2F6472697665F0
:102FD00072732F66736C5F756172742E633A363844
:102FE00033203A2072696E6742756666657200002A
:102FF0002E2E2F647269766572732F66736C5F75FF
:103000006172742E633A373033203A2068616E64FF
:103010006C6500002E2E2F647269766572732F66C0
:10302000736C5F756172742E633A373234203A20C4
:1030300068616E646C6500002E2E2F64726976657F
:1030400072732F66736C5F756172742E633A3732D8
:1030500035203A2078666572000000002E2E2F641D
:103060007269766572732F66736C5F756172742E08
:10307000633A373236203A20786665722D3E6461B5
:10308000746153697A6500002E2E2F64726976652B
:1030900072732F66736C5F756172742E633A373288
:1030A00037203A20786665722D3E646174610000B5
:1030B0002E2E2F647269766572732F66736C5F753E
:1030C0006172742E633A373534203A2068616E6439
:1030D0006C6500002E2E2F647269766572732F6600
:1030E000736C5F756172742E633A373634203A2000
:1030F00068616E646C6500002E2E2F6472697665BF
:1031000072732F66736C5F756172742E633A373613
:1031100035203A20636F756E740000002E2E2F64E8
:103120007269766572732F66736C5F756172742E47
:10313000633A373832203A2068616E646C6500006B
:103140002E2E2F647269766572732F66736C5F75AD
:103150006172742E633A373833203A20786665728C
:10316000000000002E2E2F647269766572732F6640
:10317000736C5F756172742E633A373834203A206D
:10318000786665722D3E6461746100002E2E2F6496
:103190007269766572732F66736C5F756172742ED7
:1031A000633A373835203A20786665722D3E64617F
:1031B000746153697A6500002E2E2F6472697665FA
:1031C00072732F66736C5F756172742E633A393057
:1031D00031203A2068616E646C6500002E2E2F64E9
:1031E0007269766572732F66736C5F756172742E87
:1031F000633A393232203A2068616E646C650000AF
:103200002E2E2F647269766572732F66736C5F75EC
:103210006172742E633A393233203A20636F756ECF
:10322000740000002E2E2F647269766572732F660B
:10323000736C5F756172742E633A393432203A20B0
:1032400068616E646C6500FF000000000010030000
:103250000024F400040480002A2A2A206173736584
:103260007274206661696C6564203A2000FFFFFF7C
:10327000030000002A2A2A205F437379735F616C80
:103280006C6F63206661696C65640A007200770088
:1032900000800340008003400080034000A0034002
:1032A00000A00340009003400090034000800340D2
:1032B0000080034000800340007002400070024024
:1032C000030001000100010204050001008000006C
:0832D00000093D00000040016F
:04000003000000FDFC
:00000001FF
